{
  "contractName": "MultiSigWallet",
  "abi": [
    {
      "inputs": [
        {
          "internalType": "address[]",
          "name": "_approvers",
          "type": "address[]"
        },
        {
          "internalType": "uint256",
          "name": "_quorum",
          "type": "uint256"
        }
      ],
      "payable": true,
      "stateMutability": "payable",
      "type": "constructor"
    },
    {
      "constant": true,
      "inputs": [
        {
          "internalType": "uint256",
          "name": "",
          "type": "uint256"
        }
      ],
      "name": "approvers",
      "outputs": [
        {
          "internalType": "address",
          "name": "",
          "type": "address"
        }
      ],
      "payable": false,
      "stateMutability": "view",
      "type": "function"
    },
    {
      "constant": true,
      "inputs": [],
      "name": "quorum",
      "outputs": [
        {
          "internalType": "uint256",
          "name": "",
          "type": "uint256"
        }
      ],
      "payable": false,
      "stateMutability": "view",
      "type": "function"
    },
    {
      "constant": false,
      "inputs": [
        {
          "internalType": "uint256",
          "name": "_amount",
          "type": "uint256"
        },
        {
          "internalType": "address payable",
          "name": "_to",
          "type": "address"
        }
      ],
      "name": "createTransfer",
      "outputs": [],
      "payable": false,
      "stateMutability": "nonpayable",
      "type": "function"
    },
    {
      "constant": false,
      "inputs": [
        {
          "internalType": "uint256",
          "name": "_id",
          "type": "uint256"
        }
      ],
      "name": "sendTransfer",
      "outputs": [],
      "payable": false,
      "stateMutability": "nonpayable",
      "type": "function"
    }
  ],
  "bytecode": "0x60806040526040516109303803806109308339818101604052604081101561002657600080fd5b810190808051604051939291908464010000000082111561004657600080fd5b8382019150602082018581111561005c57600080fd5b825186602082028301116401000000008211171561007957600080fd5b8083526020830192505050908051906020019060200280838360005b838110156100b0578082015181840152602081019050610095565b505050509050016040526020018051906020019092919050505081600090805190602001906100e09291906100ef565b508060018190555050506101bc565b828054828255906000526020600020908101928215610168579160200282015b828111156101675782518260006101000a81548173ffffffffffffffffffffffffffffffffffffffff021916908373ffffffffffffffffffffffffffffffffffffffff1602179055509160200191906001019061010f565b5b5090506101759190610179565b5090565b6101b991905b808211156101b557600081816101000a81549073ffffffffffffffffffffffffffffffffffffffff02191690555060010161017f565b5090565b90565b610765806101cb6000396000f3fe608060405234801561001057600080fd5b506004361061004c5760003560e01c80631703a018146100515780634c12fa471461006f578063d1c68d1e146100bd578063d3650fb8146100eb575b600080fd5b610059610159565b6040518082815260200191505060405180910390f35b6100bb6004803603604081101561008557600080fd5b8101908080359060200190929190803573ffffffffffffffffffffffffffffffffffffffff16906020019092919050505061015f565b005b6100e9600480360360208110156100d357600080fd5b8101908080359060200190929190505050610349565b005b6101176004803603602081101561010157600080fd5b81019080803590602001909291905050506106ad565b604051808273ffffffffffffffffffffffffffffffffffffffff1673ffffffffffffffffffffffffffffffffffffffff16815260200191505060405180910390f35b60015481565b600080905060008090505b6000805490508110156101f4573373ffffffffffffffffffffffffffffffffffffffff166000828154811061019b57fe5b9060005260206000200160009054906101000a900473ffffffffffffffffffffffffffffffffffffffff1673ffffffffffffffffffffffffffffffffffffffff1614156101e757600191505b808060010191505061016a565b506001151581151514610252576040517f08c379a00000000000000000000000000000000000000000000000000000000081526004018080602001828103825260248152602001806106ea6024913960400191505060405180910390fd5b6040518060a0016040528060025481526020018481526020018373ffffffffffffffffffffffffffffffffffffffff1681526020016000815260200160001515815250600360006002548152602001908152602001600020600082015181600001556020820151816001015560408201518160020160006101000a81548173ffffffffffffffffffffffffffffffffffffffff021916908373ffffffffffffffffffffffffffffffffffffffff1602179055506060820151816003015560808201518160040160006101000a81548160ff021916908315150217905550905050600260008154809291906001019190505550505050565b600080905060008090505b6000805490508110156103de573373ffffffffffffffffffffffffffffffffffffffff166000828154811061038557fe5b9060005260206000200160009054906101000a900473ffffffffffffffffffffffffffffffffffffffff1673ffffffffffffffffffffffffffffffffffffffff1614156103d157600191505b8080600101915050610354565b50600115158115151461043c576040517f08c379a00000000000000000000000000000000000000000000000000000000081526004018080602001828103825260248152602001806106ea6024913960400191505060405180910390fd5b600015156003600084815260200190815260200160002060040160009054906101000a900460ff161515146104bc576040517f08c379a000000000000000000000000000000000000000000000000000000000815260040180806020018281038252602381526020018061070e6023913960400191505060405180910390fd5b6001546003600084815260200190815260200160002060030154106105ae5760016003600084815260200190815260200160002060040160006101000a81548160ff02191690831515021790555060006003600084815260200190815260200160002060020160009054906101000a900473ffffffffffffffffffffffffffffffffffffffff1690506000600360008581526020019081526020016000206001015490508173ffffffffffffffffffffffffffffffffffffffff166108fc829081150290604051600060405180830381858888f193505050501580156105a6573d6000803e3d6000fd5b5050506106a9565b60001515600460003373ffffffffffffffffffffffffffffffffffffffff1673ffffffffffffffffffffffffffffffffffffffff168152602001908152602001600020600084815260200190815260200160002060009054906101000a900460ff16151514156106a8576001600460003373ffffffffffffffffffffffffffffffffffffffff1673ffffffffffffffffffffffffffffffffffffffff168152602001908152602001600020600084815260200190815260200160002060006101000a81548160ff02191690831515021790555060036000838152602001908152602001600020600301600081548092919060010191905055505b5b5050565b600081815481106106ba57fe5b906000526020600020016000915054906101000a900473ffffffffffffffffffffffffffffffffffffffff168156fe6f6e6c7920617070726f7665722063616e2063616c6c20746869732066756e6374696f6e7472616e736665722068617320616c7265616479206265656e20636f6d706c65746564a265627a7a72315820466e1472f146837718f84e423de85f48752e9233aab9815a170c697d183bfaf664736f6c63430005100032",
  "source": "pragma solidity ^0.5.0;\r\n\r\ncontract MultiSigWallet {\r\n    address[] public approvers;\r\n    uint public quorum;\r\n    uint nextId;\r\n    \r\n    struct Transfer {\r\n        uint id;\r\n        uint amount;\r\n        address payable to;\r\n        uint approvals;\r\n        bool sent;\r\n    }\r\n    \r\n    mapping (uint => Transfer) transfers;\r\n    mapping (address => mapping (uint => bool)) approvals;\r\n    \r\n    modifier onlyApprover() {\r\n        bool allowed = false;\r\n        for(uint i = 0; i < approvers.length; i++) {\r\n            if(approvers[i] == msg.sender) {\r\n                allowed = true;\r\n            }\r\n        }\r\n        require(allowed == true, 'only approver can call this function');\r\n        _;\r\n    }\r\n    \r\n    constructor(address[] memory _approvers, uint _quorum) public payable {\r\n        approvers = _approvers;\r\n        quorum = _quorum;\r\n    }\r\n\r\n    function createTransfer(uint _amount, address payable _to) external onlyApprover {\r\n        transfers[nextId] = Transfer(nextId, _amount, _to, 0, false);\r\n        nextId++;\r\n    }\r\n    \r\n    function sendTransfer(uint _id) external onlyApprover {\r\n        require(transfers[_id].sent == false, 'transfer has already been completed');\r\n        if(transfers[_id].approvals >= quorum) {\r\n            transfers[_id].sent = true;\r\n            address payable to = transfers[_id].to;\r\n            uint amount = transfers[_id].amount;\r\n            to.transfer(amount);\r\n            return;\r\n        }\r\n        \r\n        if(approvals[msg.sender][_id] == false) {\r\n            approvals[msg.sender][_id] = true;\r\n            transfers[_id].approvals++;\r\n        }\r\n        \r\n    }\r\n}",
  "sourcePath": "C:\\Users\\LENOVO\\Desktop\\THE GRIND\\Blockchain Dev\\gitrepo\\MultiSigWallet\\contracts\\MultiSigWallet.sol",
  "compiler": {
    "name": "solc",
    "version": "0.5.16+commit.9c3226ce.Emscripten.clang"
  },
  "schemaVersion": "3.1.0",
  "updatedAt": "2020-05-25T00:25:19.969Z",
  "devdoc": {
    "methods": {}
  },
  "userdoc": {
    "methods": {}
  }
}